:0400000020EF00F0FD
:10001C008B8800F08B981200016E01C08CFF8B96C0
:10002C000EEC00F01200016E01C08CFF8B860EEC02
:10003C0000F01200AC0EF66E000EF76E000EF86EAD
:10004C0000EE60F010EE48F00900F5CFEEFFE55041
:10005C00E150FAE10001E9EF00F0000E3C1A000E4D
:10006C003D1A000E3E1A800E3F1A38C028F039C0D7
:10007C0029F03AC02AF03BC02BF03CC02CF03DC01C
:10008C002DF03EC02EF03FC02FF0A0EC0DF028C09C
:10009C0038F029C039F02AC03AF02BC03BF01200DE
:1000AC00000000000000003F0000803F0000004006
:1000BC0000008040000000410000A04100002042F0
:1000CC000000C842000000005C8FD44100003442A4
:1000DC0052B87D4285EB974271BDA542AE47AE4208
:1000EC00D723B14229DCB242210E0001D85D4E0E5D
:1000FC00D959D8B084EF00F086EF00F0E8EF00F0AB
:10010C00CD0E446ECC0E456E4C0E466E420E476EB6
:10011C00D8C001F0D9C002F0036A046A000E3BECAF
:10012C0003F001C040F002C041F003C042F004C033
:10013C0043F0EBEC07F040C059F041C05AF042C01C
:10014C005BF043C05CF0E5EC01F059C0D8F05AC04C
:10015C00D9F00001DA05D8A4B6EF00F0B8EF00F042
:10016C00D1EF00F0D8B1BDEF00F0C0EF00F0BD88CA
:10017C00C1EF00F0BD98BD9AD8C0DBF0D9C0DCF05F
:10018C000001D890DC33DB33D890DC33DB33DB512C
:10019C00BE6EE8EF00F0D8B1D6EF00F0D9EF00F06A
:1001AC006688DAEF00F06698669AD8C0DBF0D9C0A2
:1001BC00DCF00001D890DC33DB33D890DC33DB335C
:1001CC00DB51676E1200840ED316D382000E0F0122
:1001DC00396F000E956EE70E941600F0380E12EC87
:1001EC0000F0010E12EC00F00C0E12EC00F0060EFA
:1001FC0012EC00F0000E816E0F0E936E610EBB6E52
:10020C00610E0F01526FBD86BD8466866684BA820C
:10021C00BA845183518594949492010E79EC06F032
:10022C0059C0DDF05AC0DEF05BC0DFF05CC0E0F01E
:10023C00020E79EC06F059C0E1F05AC0E2F05BC056
:10024C00E3F05CC0E4F0DDC0ACF0DEC0ADF0DFC0CC
:10025C00AEF0E0C0AFF0E1C0B0F0E2C0B1F0E3C08E
:10026C00B2F0E4C0B3F0B8EC09F0ACC0D8F0ADC05B
:10027C00D9F0010E0001DA6F7AEC00F0DDC0C2F0AB
:10028C00DEC0C3F0DFC0C4F0E0C0C5F0E1C0C6F012
:10029C00E2C0C7F0E3C0C8F0E4C0C9F015EC04F04C
:1002AC00C2C0D8F0C3C0D9F0020E0001DA6F7AECEC
:1002BC0000F013EF01F000EF00F0000E0114096ED6
:1002CC00000E02140A6E800E03140B6E7F0E0414C3
:1002DC000C6E09500A100B100C10D8A478EF01F01A
:1002EC007AEF01F082EF01F0000E016E000E026E4B
:1002FC00000E036E000E046E000E0514096E000E47
:10030C0006140A6E800E07140B6E7F0E08140C6E0A
:10031C0009500A100B100C10D8A497EF01F099EFAC
:10032C0001F0A1EF01F0000E056E000E066E000E3E
:10033C00076E000E086E04AEA6EF01F0A8EF01F0F8
:10034C00B1EF01F0016C021ED8B0022A031ED8B026
:10035C00032A800E045608AEB6EF01F0B8EF01F098
:10036C00C1EF01F0056C061ED8B0062A071ED8B0E6
:10037C00072A800E0856000E011A000E021A000EF3
:10038C00031A800E041A000E051A000E061A000E2F
:10039C00071A800E081A0550015C065002580750C7
:1003AC00035808500458D8B0DEEF01F0E0EF01F02C
:1003BC00E3EF01F0D890E4EF01F0D88012005B3449
:1003CC005C345E6E5E50D8A4EEEF01F0F0EF01F0FD
:1003DC00FAEF01F0000E596E000E5A6E000E5B6EB5
:1003EC00000E5C6E68EF02F059C0A8F05AC0A9F07C
:1003FC005BC0AAF05CC0ABF0200E0BEF02F000016A
:10040C00D890AB33AA33A933A833E82E05EF02F00A
:10041C00A8515D6E5B8EFF0E5916FF0E5A16FF0E1D
:10042C005B16000E5C16960E5E5E5EBE22EF02F050
:10043C0020EF02F038EF02F05E50800A970FD8B030
:10044C002AEF02F02CEF02F02EEF02F0F0EF01F0A9
:10045C00D8905C325B325A3259325E3E2EEF02F04B
:10046C0050EF02F01F0E5E643EEF02F040EF02F020
:10047C0048EF02F0F0EF01F0D89059365A365B365F
:10048C005C365E065E50D8A44EEF02F050EF02F0E0
:10049C0042EF02F05D50D8B456EF02F058EF02F084
:1004AC0060EF02F05C1E5B1E5A1E596C000E5A2245
:1004BC005B225C2259C059F05AC05AF05BC05BF009
:1004CC005CC05CF012008188819A819C81A071EFE4
:1004DC0002F073EF02F07DEF02F081B078EF02F0E2
:1004EC007AEF02F073EF02F0310E3AEF03F081A2D3
:1004FC0082EF02F084EF02F08EEF02F081B289EF0E
:10050C0002F08BEF02F084EF02F0340E3AEF03F0BE
:10051C0081A493EF02F095EF02F09FEF02F081B40B
:10052C009AEF02F09CEF02F095EF02F0370E3AEFE3
:10053C0003F081A6A4EF02F0A6EF02F0B0EF02F0F8
:10054C0081B6ABEF02F0ADEF02F0A6EF02F02E0E8B
:10055C003AEF03F08198818A81A0B7EF02F0B9EFEE
:10056C0002F0C3EF02F081B0BEEF02F0C0EF02F078
:10057C00B9EF02F0320E3AEF03F081A2C8EF02F0AD
:10058C00CAEF02F0D4EF02F081B2CFEF02F0D1EF5C
:10059C0002F0CAEF02F0350E3AEF03F081A4D9EF66
:1005AC0002F0DBEF02F0E5EF02F081B4E0EF02F0D5
:1005BC00E2EF02F0DBEF02F0380E3AEF03F081A627
:1005CC00EAEF02F0ECEF02F0F6EF02F081B6F1EF99
:1005DC0002F0F3EF02F0ECEF02F0300E3AEF03F022
:1005EC00819A818C81A0FDEF02F0FFEF02F009EF00
:1005FC0003F081B004EF03F006EF03F0FFEF02F01D
:10060C00330E3AEF03F081A20EEF03F010EF03F07C
:10061C001AEF03F081B215EF03F017EF03F010EFB0
:10062C0003F0360E3AEF03F081A41FEF03F021EF35
:10063C0003F02BEF03F081B426EF03F028EF03F067
:10064C0021EF03F0390E3AEF03F081A630EF03F0FF
:10065C0032EF03F069EF02F081B637EF03F039EFB8
:10066C0003F032EF03F0450E1200096E0950D8B4B6
:10067C0042EF03F044EF03F066EF03F004BE4BEFE0
:10068C0003F049EF03F066EF03F001C005F002C080
:10069C0006F003C007F004C008F0051E061E071E76
:1006AC00081E052A000E06220722082205C00BF0A0
:1006BC0006C00CF007C00DF008C00EF06EEF03F092
:1006CC0001C00BF002C00CF003C00DF004C00EF022
:1006DC000150021003100410D8A477EF03F079EF47
:1006EC0003F083EF03F0000E016E000E026E000E9D
:1006FC00036E000E046E14EF04F0960E0A6E8DEF6E
:10070C0003F00A2AD8900E320D320C320B32000E46
:10071C000B14056E000E0C14066E000E0D14076EF5
:10072C00FE0E0E14086E0550061007100810D8A403
:10073C00A2EF03F0A4EF03F087EF03F0B2EF03F0A6
:10074C000A2A010E0B26000E0C220D220E22D89026
:10075C000E320D320C320B32000E0B14056E000EE5
:10076C000C14066E000E0D14076EFF0E0E14086EA0
:10077C000550061007100810D8A4C7EF03F0C9EFF6
:10078C0003F0A6EF03F0D1EF03F00A06D8900B3676
:10079C000C360D360E360DBED6EF03F0D8EF03F047
:1007AC00E0EF03F0020E0A60DEEF03F0E0EF03F07F
:1007BC00CBEF03F00AB0E5EF03F0E7EF03F0E8EF5F
:1007CC0003F00D9ED8900A320AC005F0066A076A3B
:1007DC00086A05C008F0076A066A056A05500B121C
:1007EC0006500C1207500D1208500E120950D8B4B6
:1007FC0002EF04F004EF04F00CEF04F004BE0BEF76
:10080C0004F009EF04F00CEF04F00E8E0BC001F0B5
:10081C000CC002F00DC003F00EC004F01200C6C0F4
:10082C0040F0C7C041F0C8C042F0C9C043F0C2C0DC
:10083C0044F0C3C045F0C4C046F0C5C047F0EBEC73
:10084C0007F040C0D4F041C0D5F042C0D6F043C050
:10085C00D7F00001D7BF37EF04F035EF04F07FEF8E
:10086C0004F0000E136E000E146E800E156EBF0E8B
:10087C00166ED4C00FF0D5C010F0D6C011F0D7C092
:10088C0012F08BEC0BF00FC0CAF010C0CBF011C003
:10089C00CCF012C0CDF0CAC059F0CBC05AF0CCC0CD
:1008AC005BF0CDC05CF01BEC05F059C0CEF05AC02B
:1008BC00CFF05BC0D0F05CC0D1F0CEC00FF0CFC099
:1008CC0010F0D0C011F0D1C012F0000E136E000E5B
:1008DC00146E800E156EBF0E166E8BEC0BF00FC0E7
:1008EC00D4F010C0D5F011C0D6F012C0D7F091EFF3
:1008FC0004F0D4C059F0D5C05AF0D6C05BF0D7C0C4
:10090C005CF01BEC05F059C0D4F05AC0D5F05BC0BC
:10091C00D6F05CC0D7F00001C5BF99EF04F097EF9B
:10092C0004F0BCEF04F0C9BF9EEF04F0A0EF04F09C
:10093C00BCEF04F0D4C028F0D5C029F0D6C02AF002
:10094C00D7C02BF0000E2C6E000E2D6E340E2E6EBA
:10095C00430E2F6EA0EC0DF028C0D4F029C0D5F0BA
:10096C002AC0D6F02BC0D7F0E4EF04F0C5BFC3EF1C
:10097C0004F0C1EF04F0E4EF04F0C9BFCAEF04F0D7
:10098C00C8EF04F0E4EF04F0D4C028F0D5C029F08F
:10099C00D6C02AF0D7C02BF0000E2C6E000E2D6E98
:1009AC00340E2E6EC30E2F6EA0EC0DF028C0D4F0BA
:1009BC0029C0D5F02AC0D6F02BC0D7F0C40E136EC8
:1009CC00710E146E600E156E420E166E000E2C6EAD
:1009DC00000E2D6E340E2E6E430E2F6ED4C028F0EA
:1009EC00D5C029F0D6C02AF0D7C02BF0A0EC0DF062
:1009FC0028C00FF029C010F02AC011F02BC012F043
:100A0C008BEC0BF00FC059F010C05AF011C05BF01A
:100A1C0012C05CF0E5EC01F059C0D2F05AC0D3F032
:100A2C00D2C0C2F0D3C0C3F01200000E0001C16FDF
:100A3C00000EC06F59C001F05AC002F05BC003F049
:100A4C005CC004F0600EA86F000EA96FD890C03582
:100A5C00D96EC135DA6ED890D936DA36A851D92686
:100A6C00A951DA22DECF05F0DECF06F0DECF07F09B
:100A7C00DECF08F063EC01F0D8B047EF05F049EF9A
:100A8C0005F04BEF05F05CEF05F00001C04BC12BFE
:100A9C00C1BF5AEF05F0C15109E1090EC05DD8A0E4
:100AAC005AEF05F05CEF05F020EF05F0090E0001A0
:100ABC00C019C111D8A465EF05F067EF05F071EF0F
:100ACC0005F0000E596E000E5A6EB40E5B6E420E9F
:100ADC005C6E78EF06F0FC0EA86FFF0EA96F840E0B
:100AEC00AA6F000EAB6FA851AA27A951AB23D890BF
:100AFC00C035D96EC135DA6ED890D936DA36AA51EE
:100B0C00D926AB51DA22DECF3CF0DECF3DF0DECF82
:100B1C003EF0DECF3FF0840EAC6F000EAD6FD89080
:100B2C00C035D96EC135DA6ED890D936DA36AC51BB
:100B3C00D926AD51DA22DECF38F0DECF39F0DECF58
:100B4C003AF0DECF3BF033EC00F038C013F039C094
:100B5C0014F03AC015F03BC016F0FC0E0001AE6F5D
:100B6C00FF0EAF6F600EB06F000EB16FAE51B027BD
:100B7C00AF51B123D890C035D96EC135DA6ED8904B
:100B8C00D936DA36B051D926B151DA22DECF3CF063
:100B9C00DECF3DF0DECF3EF0DECF3FF0600EB26F29
:100BAC00000EB36FD890C035D96EC135DA6ED890BF
:100BBC00D936DA36B251D926B351DA22DECF38F033
:100BCC00DECF39F0DECF3AF0DECF3BF033EC00F085
:100BDC0038C044F039C045F03AC046F03BC047F04D
:100BEC00FC0E0001B46FFF0EB56F600EB66F000EF9
:100BFC00B76FB451B627B551B723D890C035D96E5D
:100C0C00C135DA6ED890D936DA36B651D926B75105
:100C1C00DA22DECF3CF0DECF3DF0DECF3EF0DECF91
:100C2C003FF059C038F05AC039F05BC03AF05CC0A4
:100C3C003BF033EC00F038C040F039C041F03AC022
:100C4C0042F03BC043F0EBEC07F040C00FF041C06A
:100C5C0010F042C011F043C012F08BEC0BF00FC03F
:100C6C00BCF010C0BDF011C0BEF012C0BFF0BCC0D3
:100C7C0028F0BDC029F0BEC02AF0BFC02BF0FC0E7E
:100C8C000001A86FFF0EA96F840EAA6F000EAB6F48
:100C9C00A851AA27A951AB23D890C035D96EC1351C
:100CAC00DA6ED890D936DA36AA51D926AB51DA2277
:100CBC00DECF2CF0DECF2DF0DECF2EF0DECF2FF0FE
:100CCC00A0EC0DF028C0B8F029C0B9F02AC0BAF0D9
:100CDC002BC0BBF0B8C059F0B9C05AF0BAC05BF029
:100CEC00BBC05CF012000001B06F010E12EC00F002
:100CFC000C0E12EC00F0020E0001B019D8A489EF12
:100D0C0006F08BEF06F09CEF06F0790E19EC00F074
:100D1C00280E19EC00F06D0E19EC00F0290E19ECF0
:100D2C0000F03A0E19EC00F0ABEF06F0780E19EC6F
:100D3C0000F0280E19EC00F06D0E19EC00F0290EE5
:100D4C0019EC00F03A0E19EC00F0850E12EC00F0E4
:100D5C000F0E12EC00F0000E0001B96F000EBA6F0E
:100D6C00000EBB6F000EBC6F000EB16F000EB26FA9
:100D7C00800EB36F3F0EB46F69EC02F00001BD6FD3
:100D8C002E0EBD19D8A4CDEF06F0CFEF06F0DFEF95
:100D9C0007F02D0E19EC00F069EC02F00001BD6FAC
:100DAC00000EB16F000EB26F800EB36FBF0EB46F3A
:100DBC00DFEF07F02E0EBD19D8A4E7EF06F0E9EF30
:100DCC0006F089EF07F02E0E19EC00F0000E000172
:100DDC00B56F000EB66F800EB76F3F0EB86F69EC33
:100DEC0002F00001BD6F5BEF07F0BD5119EC00F094
:100DFC00B5C040F0B6C041F0B7C042F0B8C043F047
:100E0C00000E446E000E456E200E466E410E476E6F
:100E1C00EBEC07F040C0B5F041C0B6F042C0B7F003
:100E2C0043C0B8F0B9C028F0BAC029F0BBC02AF052
:100E3C00BCC02BF0B5C013F0B6C014F0B7C015F0A1
:100E4C00B8C016F0D00E0001A86FFF0EA96FBD51EF
:100E5C00AA6FAB6BA851AA27A951AB23AAC001F06A
:100E6C00ABC002F0036A046A000E3BEC03F001C055
:100E7C000FF002C010F003C011F004C012F08BECA4
:100E8C000BF00FC02CF010C02DF011C02EF012C0C2
:100E9C002FF0A0EC0DF028C0B9F029C0BAF02AC090
:100EAC00BBF02BC0BCF0F5EF06F0450EBD19D8B465
:100EBC0062EF07F064EF07F06DEF07F02E0EBD192F
:100ECC00D8A46BEF07F06DEF07F0FBEF06F0B1C0A5
:100EDC000FF0B2C010F0B3C011F0B4C012F0B9C032
:100EEC0013F0BAC014F0BBC015F0BCC016F08BECFC
:100EFC000BF00FC059F010C05AF011C05BF012C0CB
:100F0C005CF0EAEF07F0BD5119EC00F00001BD51A7
:100F1C00016E026A036A046A010E3BEC03F001C025
:100F2C002CF002C02DF003C02EF004C02FF0000EE8
:100F3C00136E000E146E200E156E410E166EB9C097
:100F4C000FF0BAC010F0BBC011F0BCC012F08BECAB
:100F5C000BF00FC028F010C029F011C02AF012C0FD
:100F6C002BF0A0EC0DF028C0ACF029C0ADF02AC0DD
:100F7C00AEF02BC0AFF0ACC028F0ADC029F0AEC0C5
:100F8C002AF0AFC02BF0000E2C6E000E2D6E400E12
:100F9C002E6EC20E2F6EA0EC0DF028C0B9F029C039
:100FAC00BAF02AC0BBF02BC0BCF069EC02F0000117
:100FBC00BD6F450EBD19D8A4E6EF07F0E8EF07F0BA
:100FCC00E0EF06F06DEF07F012004350800B506E0F
:100FDC0043504324576E42AEF6EF07F0F8EF07F09C
:100FEC00F9EF07F057805750D8B4FFEF07F001EF37
:100FFC0008F016EF08F05728D8A407EF08F009EF0F
:10100C0008F011EF08F0000E406E000E416E000E5D
:10101C00426E000E436E428E000E436E1EEF08F0C1
:10102C00000E406E000E416E000E426E000E436EBE
:10103C004750800B501A47504724586E46AE29EF44
:10104C0008F02BEF08F02CEF08F058805850D8B46B
:10105C0032EF08F034EF08F049EF08F05828D8A424
:10106C003AEF08F03CEF08F044EF08F0000E446E45
:10107C00000E456E000E466E000E476E468E000E3C
:10108C00476E51EF08F0000E446E000E456E000ED8
:10109C00466E000E476E4450451046104710D8A4BB
:1010AC005AEF08F05CEF08F074EF08F0000E406E99
:1010BC00000E416E000E426E000E436E800E421208
:1010CC007F0E43125050431240C040F041C041F0DB
:1010DC0042C042F043C043F0B7EF09F05750D8A4D8
:1010EC007AEF08F07CEF08F086EF08F0000E406E07
:1010FC00000E416E000E426E000E436EB7EF09F00B
:10110C00585057C048F0496A485E000E495A7F0E45
:10111C004824516E000E4920526E40C04CF041C024
:10112C004DF042C04EF043C04FF0000E406E000E2A
:10113C00416E000E426E000E436E000E536E000E9A
:10114C00546E000E556E000E566E000E586EE7EF84
:10115C0008F05850D8B4B5EF08F0B7EF08F0CEEF60
:10116C0008F0D8904C364D364E364F36D890403627
:10117C0041364236433656AEC6EF08F0C8EF08F09B
:10118C00C9EF08F04080D890533654365536563651
:10119C0044504C5C45504D5846504E5847504F5853
:1011AC00D8A0DBEF08F0DDEF08F0E6EF08F0568C86
:1011BC0044504C5E45504D5A46504E5A47504F5A2B
:1011CC00582A190E5864EDEF08F0EFEF08F0AFEF66
:1011DC0008F04C504D104E104F10D8B4F8EF08F0EA
:1011EC00FAEF08F012EF09F0538012EF09F0D890E3
:1011FC00403641364236433656AE07EF09F009EF1A
:10120C0009F00AEF09F04080D89053365436553621
:10121C0056365106D8A0520642AE17EF09F019EF18
:10122C0009F0FDEF08F0000E586E56AE20EF09F0F5
:10123C0022EF09F046EF09F0FF0E5314486EFF0E33
:10124C005414496EFF0E55144A6E7F0E56144B6E95
:10125C00485049104A104B10D8B437EF09F039EF09
:10126C0009F03DEF09F0010E586E46EF09F040A071
:10127C0042EF09F044EF09F046EF09F039EF09F0BD
:10128C005850D8B44CEF09F04EEF09F072EF09F05A
:10129C00010E4026000E41224222432243A059EF68
:1012AC0009F05BEF09F072EF09F040C048F041C063
:1012BC0049F042C04AF043C04BF04B344B324A32F7
:1012CC004932483248C040F049C041F04AC042F06F
:1012DC004BC043F0514A522A52BE7DEF09F0525096
:1012EC0008E15128D8A07DEF09F07FEF09F08AEFD3
:1012FC0009F0000E526E5168000E406E000E416EE9
:10130C00000E426E000E436E52BE97EF09F0525023
:10131C0006E15104D8B095EF09F097EF09F0A5EF6D
:10132C0009F0000E526E000E516E000E406E000E53
:10133C00416E000E426E000E436E000E506E51C098
:10134C0057F057A0ACEF09F0AEEF09F0B1EF09F090
:10135C00428EB2EF09F0429ED8905730436E68EF40
:10136C0008F01200ACC013F0ADC014F0AEC015F014
:10137C00AFC016F0ACC00FF0ADC010F0AEC011F0A5
:10138C00AFC012F08BEC0BF00FC028F010C029F09E
:10139C0011C02AF012C02BF0B0C013F0B1C014F081
:1013AC00B2C015F0B3C016F0B0C00FF0B1C010F061
:1013BC00B2C011F0B3C012F08BEC0BF00FC02CF0DC
:1013CC0010C02DF011C02EF012C02FF0A0EC0DF0BB
:1013DC0028C0CEF029C0CFF02AC0D0F02BC0D1F05D
:1013EC00CEC00FF0CFC010F0D0C011F0D1C012F0B1
:1013FC00CEC013F0CFC014F0D0C015F0D1C016F091
:10140C008BEC0BF00FC0CAF010C0CBF011C0CCF0BD
:10141C0012C0CDF0CEC00FF0CFC010F0D0C011F084
:10142C00D1C012F0CAC013F0CBC014F0CCC015F070
:10143C00CDC016F08BEC0BF00FC0C6F010C0C7F08F
:10144C0011C0C8F012C0C9F09F0E136ECD0E146EF1
:10145C00960E156E400E166ECAC00FF0CBC010F073
:10146C00CCC011F0CDC012F08BEC0BF00FC03CF0E7
:10147C0010C03DF011C03EF012C03FF00F0E136EC5
:10148C009C0E146E7F0E156E400E166EC6C00FF0BD
:10149C00C7C010F0C8C011F0C9C012F08BEC0BF033
:1014AC000FC038F010C039F011C03AF012C03BF048
:1014BC0033EC00F038C0B4F039C0B5F03AC0B6F037
:1014CC003BC0B7F0D00E136EB30E146E250E156E16
:1014DC00400E166ECEC00FF0CFC010F0D0C011F081
:1014EC00D1C012F08BEC0BF00FC02CF010C02DF013
:1014FC0011C02EF012C02FF0B4C028F0B5C029F0E6
:10150C00B6C02AF0B7C02BF0A0EC0DF028C0B8F094
:10151C0029C0B9F02AC0BAF02BC0BBF0B8C028F073
:10152C00B9C029F0BAC02AF0BBC02BF05A0E2C6EF1
:10153C00640E2D6EBB0E2E6E3D0E2F6EA0EC0DF0BC
:10154C0028C0CEF029C0CFF02AC0D0F02BC0D1F0EB
:10155C00CEC00FF0CFC010F0D0C011F0D1C012F03F
:10156C00CEC013F0CFC014F0D0C015F0D1C016F01F
:10157C008BEC0BF00FC0CAF010C0CBF011C0CCF04C
:10158C0012C0CDF0CEC00FF0CFC010F0D0C011F013
:10159C00D1C012F0CAC013F0CBC014F0CCC015F0FF
:1015AC00CDC016F08BEC0BF00FC0C6F010C0C7F01E
:1015BC0011C0C8F012C0C9F0EC0E136EB10E146E4F
:1015CC00900E156E420E166ECAC00FF0CBC010F006
:1015DC00CCC011F0CDC012F08BEC0BF00FC02CF086
:1015EC0010C02DF011C02EF012C02FF09F0E136EF4
:1015FC002B0E146E2E0E156EC20E166EC6C00FF08C
:10160C00C7C010F0C8C011F0C9C012F08BEC0BF0C1
:10161C000FC028F010C029F011C02AF012C02BF016
:10162C00A0EC0DF028C0BCF029C0BDF02AC0BEF063
:10163C002BC0BFF07F0E136EFB0E146E7E0E156E5C
:10164C00400E166ECEC00FF0CFC010F0D0C011F00F
:10165C00D1C012F08BEC0BF00FC03CF010C03DF081
:10166C0011C03EF012C03FF0BCC038F0BDC039F024
:10167C00BEC03AF0BFC03BF033EC00F038C0C0F055
:10168C0039C0C1F03AC0C2F03BC0C3F0C0C028F0B2
:10169C00C1C029F0C2C02AF0C3C02BF0C50E2C6EFD
:1016AC00200E2D6E900E2E6EBE0E2F6EA0EC0DF039
:1016BC0028C0CEF029C0CFF02AC0D0F02BC0D1F07A
:1016CC00560E136E950E146E8B0E156E440E166E12
:1016DC00CEC00FF0CFC010F0D0C011F0D1C012F0BE
:1016EC008BEC0BF00FC059F010C05AF011C05BF02E
:1016FC0012C05CF0E5EC01F059C0C4F05AC0C5F062
:10170C00C4C0ACF0C5C0ADF012001250800B1B6E03
:10171C0012501224216E11AE96EF0BF098EF0BF0D5
:10172C0099EF0BF021802150D8B49FEF0BF0A1EF73
:10173C000BF0B4EF0BF02128D8A4A7EF0BF0A9EF16
:10174C000BF0B1EF0BF0000E0F6E000E106E000ED2
:10175C00116E000E126E118EBCEF0BF0000E0F6EA0
:10176C00000E106E000E116E000E126E1650800BD5
:10177C001B1A16501624206E15AEC7EF0BF0C9EFCE
:10178C000BF0CAEF0BF020802050D8B4D0EF0BF048
:10179C00D2EF0BF0E5EF0BF02028D8A4D8EF0BF02C
:1017AC00DAEF0BF0E2EF0BF0000E136E000E146E7E
:1017BC00000E156E000E166E158EEDEF0BF0000E72
:1017CC00136E000E146E000E156E000E166E205069
:1017DC00D8B4F3EF0BF0F5EF0BF0FDEF0BF021505D
:1017EC00D8A4FBEF0BF0FDEF0BF007EF0CF0000EA5
:1017FC000F6E000E106E000E116E000E126E9FEF2B
:10180C000DF015500F02F3CF26F0F4CF27F0265031
:10181C001C6E1D6A1E6A1F6A2750226E236A246A78
:10182C00256A14501002F3CF26F0F4CF27F026507F
:10183C001C26000E1D221E221F2227502226000EBF
:10184C0023222422252213501102F3CF26F0F4CFA9
:10185C0027F026501C26000E1D221E221F22275068
:10186C002226000E2322242225221EC01FF01DC07A
:10187C001EF01CC01DF01C6A13501002F3CF26F092
:10188C00F4CF27F026501C2627501D22000E1E22B6
:10189C00000E1F2214500F02F3CF26F0F4CF27F0C6
:1018AC0026501C2627501D22000E1E22000E1F2221
:1018BC001EC01FF01DC01EF01CC01DF01C6A135072
:1018CC000F02F3CF26F0F4CF27F026501C2627501A
:1018DC001D22000E1E22000E1F2215501002F3CFE7
:1018EC0026F0F4CF27F02650222627502322000E74
:1018FC002422000E252214501102F3CF26F0F4CF2F
:10190C0027F02650222627502322000E2422000ED8
:10191C00252215501102F3CF26F0F4CF27F02650D4
:10192C00176E2750186E196A1A6A19C01AF018C067
:10193C0019F017C018F0176A1750222618502322D6
:10194C00195024221A5025221CC017F01DC018F063
:10195C001EC019F01FC01AF0190EBAEF0CF0D89077
:10196C001A32193218321732E82EB5EF0CF0175024
:10197C00222618502322195024221A5025221EC028
:10198C001FF01DC01EF01CC01DF01C6A205021C091
:10199C0017F0186A1726000E1822820E1724266ECE
:1019AC00FF0E1820276EF0EF0CF0D890223623365D
:1019BC00243625361FAEE5EF0CF0E7EF0CF0E8EF20
:1019CC000CF02280D8901C361D361E361F3626068B
:1019DC00D8A0270624AEF5EF0CF0F7EF0CF0DBEFF8
:1019EC000CF0000E206E1FAEFEEF0CF000EF0DF0B1
:1019FC0024EF0DF0FF0E1C14176EFF0E1D14186E45
:101A0C00FF0E1E14196E7F0E1F141A6E175018102D
:101A1C0019101A10D8B415EF0DF017EF0DF01BEFCD
:101A2C000DF0010E206E24EF0DF022A020EF0DF032
:101A3C0022EF0DF024EF0DF017EF0DF02050D8B47D
:101A4C002AEF0DF02CEF0DF050EF0DF0010E2226C9
:101A5C00000E23222422252225A037EF0DF039EF8A
:101A6C000DF050EF0DF022C017F023C018F024C079
:101A7C0019F025C01AF01A341A32193218321732EA
:101A8C0017C022F018C023F019C024F01AC025F09A
:101A9C00264A272A27BE5BEF0DF0275008E126289F
:101AAC00D8A05BEF0DF05DEF0DF067EF0DF0000EC1
:101ABC00226E000E236E800E246E7F0E256E95EF27
:101ACC000DF027BE74EF0DF0275006E12604D8B0B8
:101ADC0072EF0DF074EF0DF080EF0DF0000E226E32
:101AEC00000E236E000E246E000E256E000E1B6E73
:101AFC0095EF0DF026C021F0FF0E2216FF0E2316D7
:101B0C007F0E2416000E251621A08FEF0DF091EFFD
:101B1C000DF092EF0DF0248ED8902130256E1B50D5
:101B2C00251222C00FF023C010F024C011F025C0E4
:101B3C0012F012002B50800B346E2B502B24366E6F
:101B4C002AAEABEF0DF0ADEF0DF0AEEF0DF0368031
:101B5C003650D8B4B4EF0DF0B6EF0DF0CBEF0DF06E
:101B6C003628D8A4BCEF0DF0BEEF0DF0C6EF0DF08B
:101B7C00000E286E000E296E000E2A6E000E2B6EC3
:101B8C002A8E000E2B6ED3EF0DF0000E286E000E79
:101B9C00296E000E2A6E000E2B6E2F50800B356EA8
:101BAC0034503518D8B4DDEF0DF0DFEF0DF0E0EF69
:101BBC000DF0348C2F502F24356E2EAEE8EF0DF037
:101BCC00EAEF0DF0EBEF0DF035803550D8B4F1EFB6
:101BDC000DF0F3EF0DF008EF0EF03528D8A4F9EF67
:101BEC000DF0FBEF0DF003EF0EF0000E2C6E000E5F
:101BFC002D6E000E2E6E000E2F6E2E8E000E2F6E82
:101C0C0010EF0EF0000E2C6E000E2D6E000E2E6ED0
:101C1C00000E2F6E3650355CD8B017EF0EF019EF62
:101C2C000EF040EF0EF034AC1EEF0EF020EF0EF085
:101C3C0022EF0EF0800E341A36C037F035C036F075
:101C4C0037C035F028C037F02CC028F037C02CF046
:101C5C0029C037F02DC029F037C02DF02AC037F03D
:101C6C002EC02AF037C02EF02BC037F02FC02BF02F
:101C7C0037C02FF0000E376E365035C030F0316A59
:101C8C00305E000E315A31BE55EF0EF0315009E185
:101C9C001A0E305CD8A055EF0EF057EF0EF08EEF09
:101CAC000EF0285029102A102B10D8A460EF0EF03B
:101CBC0063EF0EF0010E64EF0EF0000E376E000EA7
:101CCC00286E000E296E000E2A6E000E2B6E35C08B
:101CDC0036F097EF0EF037A076EF0EF078EF0EF0AF
:101CEC007EEF0EF0D89037300109376E80EF0EF092
:101CFC00D890373228A085EF0EF087EF0EF088EFE2
:101D0C000EF0378E2B342B322A3229322832362AD7
:101D1C003550365CD8A095EF0EF097EF0EF071EFC2
:101D2C000EF034BC9CEF0EF09EEF0EF0DEEF0EF0DA
:101D3C003650D8A4A4EF0EF0A6EF0EF0B0EF0EF0D4
:101D4C00000E286E000E296E000E2A6E000E2B6EF1
:101D5C00FFEF0FF02C5028262D5029222E502A222E
:101D6C002F502B222BA0BDEF0EF0BFEF0EF06BEF20
:101D7C000FF037A0C4EF0EF0C6EF0EF0CCEF0EF064
:101D8C00D89037300109376ECEEF0EF0D89037323D
:101D9C0028A0D3EF0EF0D5EF0EF0D6EF0EF0378E65
:101DAC002B342B322A3229322832362A6BEF0FF0A1
:101DBC002C50285C2D5029582E502A582B50800A14
:101DCC00306E2F50800A3058D8B0EFEF0EF0F1EF94
:101DDC000EF01CEF0FF028502C5C306E29502D5853
:101DEC00316E2A502E58326E2B502F58336EFF0EF8
:101DFC003024286EFF0E3120296EFF0E32202A6E01
:101E0C00FF0E33202B6E800E341A376C3750D8A44B
:101E1C0012EF0FF014EF0FF024EF0FF0010E282645
:101E2C00000E29222A222B2224EF0FF02C50285EA0
:101E3C002D50295A2E502A5A2F502B5A28502910DF
:101E4C002A102B10D8A42DEF0FF02FEF0FF064EF0A
:101E5C000FF03750D8A435EF0FF037EF0FF064EFD9
:101E6C000FF0000E286E000E296E000E2A6E000E6A
:101E7C002B6EFFEF0FF0D890283629362A362B36EA
:101E8C0037AE4BEF0FF04DEF0FF04EEF0FF0288009
:101E9C0037A053EF0FF055EF0FF059EF0FF0D8803C
:101EAC0037365BEF0FF0D89037363650D8B461EF39
:101EBC000FF063EF0FF064EF0FF036062AAE69EF08
:101ECC000FF06BEF0FF041EF0FF0000E356E37AEE9
:101EDC0072EF0FF074EF0FF08CEF0FF037C030F0A3
:101EEC007F0E3016D8B47DEF0FF07FEF0FF083EF3D
:101EFC000FF0010E356E8CEF0FF028A088EF0FF06D
:101F0C008AEF0FF08CEF0FF07FEF0FF03550D8B455
:101F1C0092EF0FF094EF0FF0BFEF0FF0010E2826A9
:101F2C00000E29222A222B222BA09FEF0FF0A1EFCB
:101F3C000FF0BFEF0FF028C030F029C031F02AC0ED
:101F4C0032F02BC033F03334333232323132303260
:101F5C0030C028F031C029F032C02AF033C02BF049
:101F6C003628D8B4BCEF0FF0BEEF0FF0BFEF0FF078
:101F7C00362A3628D8B4C5EF0FF0C7EF0FF0CFEFE5
:101F8C000FF03650D8A4CDEF0FF0CFEF0FF0E1EFFC
:101F9C000FF0000E286E000E296E000E2A6E000E39
:101FAC002B6E3650D8A4DDEF0FF0DFEF0FF0E1EF22
:101FBC000FF0000E346E36A0E6EF0FF0E8EF0FF0E6
:101FCC00EBEF0FF02A8EECEF0FF02A9ED890363004
:101FDC002B6E34AEF4EF0FF0F6EF0FF0F7EF0FF0CF
:101FEC002B8E28C028F029C029F02AC02AF02BC03B
:041FFC002BF01200B4
:020000040020DA
:08000000FFFFFFFFFFFFFFFF00
:020000040030CA
:0E000000FF291F3FFFBF85FF03C003E0034041
:00000001FF
